{
    "abi": [
        {
            "type": "constructor",
            "inputs": [
                {
                    "name": "_votingAddr",
                    "type": "address",
                    "internalType": "address"
                }
            ],
            "stateMutability": "nonpayable"
        },
        {
            "type": "function",
            "name": "addValidator",
            "inputs": [
                {
                    "name": "val",
                    "type": "address",
                    "internalType": "address"
                }
            ],
            "outputs": [],
            "stateMutability": "nonpayable"
        },
        {
            "type": "function",
            "name": "approvePause",
            "inputs": [
                {
                    "name": "reqId",
                    "type": "uint256",
                    "internalType": "uint256"
                }
            ],
            "outputs": [],
            "stateMutability": "nonpayable"
        },
        {
            "type": "function",
            "name": "approveResume",
            "inputs": [
                {
                    "name": "reqId",
                    "type": "uint256",
                    "internalType": "uint256"
                }
            ],
            "outputs": [],
            "stateMutability": "nonpayable"
        },
        {
            "type": "function",
            "name": "changeAdmin",
            "inputs": [
                {
                    "name": "newAdmin",
                    "type": "address",
                    "internalType": "address"
                }
            ],
            "outputs": [],
            "stateMutability": "nonpayable"
        },
        {
            "type": "function",
            "name": "getAdmin",
            "inputs": [],
            "outputs": [
                {
                    "name": "",
                    "type": "address",
                    "internalType": "address"
                }
            ],
            "stateMutability": "view"
        },
        {
            "type": "function",
            "name": "isValidator",
            "inputs": [
                {
                    "name": "val",
                    "type": "address",
                    "internalType": "address"
                }
            ],
            "outputs": [
                {
                    "name": "",
                    "type": "bool",
                    "internalType": "bool"
                }
            ],
            "stateMutability": "view"
        },
        {
            "type": "function",
            "name": "removeValidator",
            "inputs": [
                {
                    "name": "val",
                    "type": "address",
                    "internalType": "address"
                }
            ],
            "outputs": [],
            "stateMutability": "nonpayable"
        },
        {
            "type": "function",
            "name": "requestPause",
            "inputs": [
                {
                    "name": "const",
                    "type": "string",
                    "internalType": "string"
                }
            ],
            "outputs": [
                {
                    "name": "",
                    "type": "uint256",
                    "internalType": "uint256"
                }
            ],
            "stateMutability": "nonpayable"
        },
        {
            "type": "function",
            "name": "requestResume",
            "inputs": [
                {
                    "name": "const",
                    "type": "string",
                    "internalType": "string"
                }
            ],
            "outputs": [
                {
                    "name": "",
                    "type": "uint256",
                    "internalType": "uint256"
                }
            ],
            "stateMutability": "nonpayable"
        },
        {
            "type": "function",
            "name": "setThreshold",
            "inputs": [
                {
                    "name": "newThresh",
                    "type": "uint256",
                    "internalType": "uint256"
                }
            ],
            "outputs": [],
            "stateMutability": "nonpayable"
        },
        {
            "type": "event",
            "name": "AdminChanged",
            "inputs": [
                {
                    "name": "oldAdmin",
                    "type": "address",
                    "indexed": false,
                    "internalType": "address"
                },
                {
                    "name": "newAdmin",
                    "type": "address",
                    "indexed": false,
                    "internalType": "address"
                }
            ],
            "anonymous": false
        },
        {
            "type": "event",
            "name": "PauseRequest",
            "inputs": [
                {
                    "name": "reqId",
                    "type": "uint256",
                    "indexed": false,
                    "internalType": "uint256"
                },
                {
                    "name": "constName",
                    "type": "string",
                    "indexed": false,
                    "internalType": "string"
                }
            ],
            "anonymous": false
        },
        {
            "type": "event",
            "name": "ValidatorAdded",
            "inputs": [
                {
                    "name": "val",
                    "type": "address",
                    "indexed": false,
                    "internalType": "address"
                }
            ],
            "anonymous": false
        },
        {
            "type": "event",
            "name": "ValidatorApproved",
            "inputs": [
                {
                    "name": "reqId",
                    "type": "uint256",
                    "indexed": false,
                    "internalType": "uint256"
                },
                {
                    "name": "val",
                    "type": "address",
                    "indexed": false,
                    "internalType": "address"
                }
            ],
            "anonymous": false
        },
        {
            "type": "event",
            "name": "ValidatorRemoved",
            "inputs": [
                {
                    "name": "val",
                    "type": "address",
                    "indexed": false,
                    "internalType": "address"
                }
            ],
            "anonymous": false
        },
        {
            "type": "event",
            "name": "VotingPaused",
            "inputs": [
                {
                    "name": "const",
                    "type": "string",
                    "indexed": false,
                    "internalType": "string"
                }
            ],
            "anonymous": false
        },
        {
            "type": "event",
            "name": "VotingResumed",
            "inputs": [
                {
                    "name": "const",
                    "type": "string",
                    "indexed": false,
                    "internalType": "string"
                }
            ],
            "anonymous": false
        }
    ],
    "bytecode": {
        "object": "0x60806040523480156200001157600080fd5b50604051620020b2380380620020b2833981810160405281019062000037919062000191565b33600160006101000a81548173ffffffffffffffffffffffffffffffffffffffff021916908373ffffffffffffffffffffffffffffffffffffffff160217905550806000806101000a81548173ffffffffffffffffffffffffffffffffffffffff021916908373ffffffffffffffffffffffffffffffffffffffff16021790555060436004819055506001600260003373ffffffffffffffffffffffffffffffffffffffff1673ffffffffffffffffffffffffffffffffffffffff16815260200190815260200160002060006101000a81548160ff021916908315150217905550600160038190555050620001c3565b600080fd5b600073ffffffffffffffffffffffffffffffffffffffff82169050919050565b600062000159826200012c565b9050919050565b6200016b816200014c565b81146200017757600080fd5b50565b6000815190506200018b8162000160565b92915050565b600060208284031215620001aa57620001a962000127565b5b6000620001ba848285016200017a565b91505092915050565b611edf80620001d36000396000f3fe608060405234801561001057600080fd5b506004361061009e5760003560e01c8063960bfe0411610066578063960bfe0414610145578063baec956d14610161578063cf1827a714610191578063dbf6bafb146101ad578063facd743b146101c95761009e565b806302950ac5146100a357806340a141ff146100d35780634d238c8e146100ef5780636e9960c31461010b5780638f28397014610129575b600080fd5b6100bd60048036038101906100b89190611355565b6101f9565b6040516100ca91906113b7565b60405180910390f35b6100ed60048036038101906100e89190611430565b610339565b005b61010960048036038101906101049190611430565b6104ff565b005b6101136106c6565b604051610120919061146c565b60405180910390f35b610143600480360381019061013e9190611430565b6106f0565b005b61015f600480360381019061015a91906114b3565b610924565b005b61017b60048036038101906101769190611355565b610a0e565b60405161018891906113b7565b60405180910390f35b6101ab60048036038101906101a691906114b3565b610b4e565b005b6101c760048036038101906101c291906114b3565b610e96565b005b6101e360048036038101906101de9190611430565b6111a5565b6040516101f091906114fb565b60405180910390f35b6000600160009054906101000a900473ffffffffffffffffffffffffffffffffffffffff1673ffffffffffffffffffffffffffffffffffffffff163373ffffffffffffffffffffffffffffffffffffffff161461028b576040517f08c379a000000000000000000000000000000000000000000000000000000000815260040161028290611573565b60405180910390fd5b6000600660008154809291906102a0906115c2565b9190505590506000600560008381526020019081526020016000209050838160000190816102ce9190611821565b506000816001018190555060008160020160006101000a81548160ff0219169083151502179055507f2ec799e8e1c27786f9be0031af6cccad655e2e92b430320866b90174a2aec7ef8285604051610327929190611956565b60405180910390a18192505050919050565b600160009054906101000a900473ffffffffffffffffffffffffffffffffffffffff1673ffffffffffffffffffffffffffffffffffffffff163373ffffffffffffffffffffffffffffffffffffffff16146103c9576040517f08c379a00000000000000000000000000000000000000000000000000000000081526004016103c090611573565b60405180910390fd5b600260008273ffffffffffffffffffffffffffffffffffffffff1673ffffffffffffffffffffffffffffffffffffffff16815260200190815260200160002060009054906101000a900460ff16610455576040517f08c379a000000000000000000000000000000000000000000000000000000000815260040161044c906119d2565b60405180910390fd5b6000600260008373ffffffffffffffffffffffffffffffffffffffff1673ffffffffffffffffffffffffffffffffffffffff16815260200190815260200160002060006101000a81548160ff021916908315150217905550600360008154809291906104c0906119f2565b91905055507fe1434e25d6611e0db941968fdc97811c982ac1602e951637d206f5fdda9dd8f1816040516104f4919061146c565b60405180910390a150565b600160009054906101000a900473ffffffffffffffffffffffffffffffffffffffff1673ffffffffffffffffffffffffffffffffffffffff163373ffffffffffffffffffffffffffffffffffffffff161461058f576040517f08c379a000000000000000000000000000000000000000000000000000000000815260040161058690611573565b60405180910390fd5b600260008273ffffffffffffffffffffffffffffffffffffffff1673ffffffffffffffffffffffffffffffffffffffff16815260200190815260200160002060009054906101000a900460ff161561061c576040517f08c379a000000000000000000000000000000000000000000000000000000000815260040161061390611a67565b60405180910390fd5b6001600260008373ffffffffffffffffffffffffffffffffffffffff1673ffffffffffffffffffffffffffffffffffffffff16815260200190815260200160002060006101000a81548160ff02191690831515021790555060036000815480929190610687906115c2565b91905055507fe366c1c0452ed8eec96861e9e54141ebff23c9ec89fe27b996b45f5ec3884987816040516106bb919061146c565b60405180910390a150565b6000600160009054906101000a900473ffffffffffffffffffffffffffffffffffffffff16905090565b600160009054906101000a900473ffffffffffffffffffffffffffffffffffffffff1673ffffffffffffffffffffffffffffffffffffffff163373ffffffffffffffffffffffffffffffffffffffff1614610780576040517f08c379a000000000000000000000000000000000000000000000000000000000815260040161077790611573565b60405180910390fd5b600073ffffffffffffffffffffffffffffffffffffffff168173ffffffffffffffffffffffffffffffffffffffff16036107ef576040517f08c379a00000000000000000000000000000000000000000000000000000000081526004016107e690611ad3565b60405180910390fd5b600160009054906101000a900473ffffffffffffffffffffffffffffffffffffffff1673ffffffffffffffffffffffffffffffffffffffff168173ffffffffffffffffffffffffffffffffffffffff160361087f576040517f08c379a000000000000000000000000000000000000000000000000000000000815260040161087690611b3f565b60405180910390fd5b6000600160009054906101000a900473ffffffffffffffffffffffffffffffffffffffff16905081600160006101000a81548173ffffffffffffffffffffffffffffffffffffffff021916908373ffffffffffffffffffffffffffffffffffffffff1602179055507f7e644d79422f17c01e4894b5f4f588d331ebfa28653d42ae832dc59e38c9798f8183604051610918929190611b5f565b60405180910390a15050565b600160009054906101000a900473ffffffffffffffffffffffffffffffffffffffff1673ffffffffffffffffffffffffffffffffffffffff163373ffffffffffffffffffffffffffffffffffffffff16146109b4576040517f08c379a00000000000000000000000000000000000000000000000000000000081526004016109ab90611573565b60405180910390fd5b6000811180156109c5575060648111155b610a04576040517f08c379a00000000000000000000000000000000000000000000000000000000081526004016109fb90611bd4565b60405180910390fd5b8060048190555050565b6000600160009054906101000a900473ffffffffffffffffffffffffffffffffffffffff1673ffffffffffffffffffffffffffffffffffffffff163373ffffffffffffffffffffffffffffffffffffffff1614610aa0576040517f08c379a0000000000000000000000000000000000000000000000000000000008152600401610a9790611573565b60405180910390fd5b600060066000815480929190610ab5906115c2565b919050559050600060056000838152602001908152602001600020905083816000019081610ae39190611821565b506000816001018190555060008160020160006101000a81548160ff0219169083151502179055507f2ec799e8e1c27786f9be0031af6cccad655e2e92b430320866b90174a2aec7ef8285604051610b3c929190611956565b60405180910390a18192505050919050565b600260003373ffffffffffffffffffffffffffffffffffffffff1673ffffffffffffffffffffffffffffffffffffffff16815260200190815260200160002060009054906101000a900460ff16610bda576040517f08c379a0000000000000000000000000000000000000000000000000000000008152600401610bd190611c40565b60405180910390fd5b60006005600083815260200190815260200160002090508060020160009054906101000a900460ff1615610c43576040517f08c379a0000000000000000000000000000000000000000000000000000000008152600401610c3a90611cac565b60405180910390fd5b8060030160003373ffffffffffffffffffffffffffffffffffffffff1673ffffffffffffffffffffffffffffffffffffffff16815260200190815260200160002060009054906101000a900460ff1615610cd2576040517f08c379a0000000000000000000000000000000000000000000000000000000008152600401610cc990611d18565b60405180910390fd5b60018160030160003373ffffffffffffffffffffffffffffffffffffffff1673ffffffffffffffffffffffffffffffffffffffff16815260200190815260200160002060006101000a81548160ff021916908315150217905550806001016000815480929190610d41906115c2565b91905055507fbf803eb7ed6e19c188920ee624e01e50de0a5fd0d5149863bf5d90cdc3b1bf5a8233604051610d77929190611d38565b60405180910390a160045460035460648360010154610d969190611d61565b610da09190611dd2565b10610e925760008060009054906101000a900473ffffffffffffffffffffffffffffffffffffffff1690508073ffffffffffffffffffffffffffffffffffffffff1663e91165c8836000016040518263ffffffff1660e01b8152600401610e079190611e87565b600060405180830381600087803b158015610e2157600080fd5b505af1158015610e35573d6000803e3d6000fd5b5050505060018260020160006101000a81548160ff0219169083151502179055507f68f602f889f1f1cf5755ee19ef230cd7c3afc8d865c4fa2cc250151d9e21e12582600001604051610e889190611e87565b60405180910390a1505b5050565b600260003373ffffffffffffffffffffffffffffffffffffffff1673ffffffffffffffffffffffffffffffffffffffff16815260200190815260200160002060009054906101000a900460ff16610f22576040517f08c379a0000000000000000000000000000000000000000000000000000000008152600401610f1990611c40565b60405180910390fd5b60006005600083815260200190815260200160002090508060020160009054906101000a900460ff1615610f8b576040517f08c379a0000000000000000000000000000000000000000000000000000000008152600401610f8290611cac565b60405180910390fd5b8060030160003373ffffffffffffffffffffffffffffffffffffffff1673ffffffffffffffffffffffffffffffffffffffff16815260200190815260200160002060009054906101000a900460ff161561101a576040517f08c379a000000000000000000000000000000000000000000000000000000000815260040161101190611d18565b60405180910390fd5b60018160030160003373ffffffffffffffffffffffffffffffffffffffff1673ffffffffffffffffffffffffffffffffffffffff16815260200190815260200160002060006101000a81548160ff021916908315150217905550806001016000815480929190611089906115c2565b9190505550600454600354606483600101546110a59190611d61565b6110af9190611dd2565b106111a15760008060009054906101000a900473ffffffffffffffffffffffffffffffffffffffff1690508073ffffffffffffffffffffffffffffffffffffffff1663e5f2d84c836000016040518263ffffffff1660e01b81526004016111169190611e87565b600060405180830381600087803b15801561113057600080fd5b505af1158015611144573d6000803e3d6000fd5b5050505060018260020160006101000a81548160ff0219169083151502179055507f326b58937b050e94c78021010a5b85846a4e714bc4a50291526ef33de9dc54fe826000016040516111979190611e87565b60405180910390a1505b5050565b6000600260008373ffffffffffffffffffffffffffffffffffffffff1673ffffffffffffffffffffffffffffffffffffffff16815260200190815260200160002060009054906101000a900460ff169050919050565b6000604051905090565b600080fd5b600080fd5b600080fd5b600080fd5b6000601f19601f8301169050919050565b7f4e487b7100000000000000000000000000000000000000000000000000000000600052604160045260246000fd5b61126282611219565b810181811067ffffffffffffffff821117156112815761128061122a565b5b80604052505050565b60006112946111fb565b90506112a08282611259565b919050565b600067ffffffffffffffff8211156112c0576112bf61122a565b5b6112c982611219565b9050602081019050919050565b82818337600083830152505050565b60006112f86112f3846112a5565b61128a565b90508281526020810184848401111561131457611313611214565b5b61131f8482856112d6565b509392505050565b600082601f83011261133c5761133b61120f565b5b813561134c8482602086016112e5565b91505092915050565b60006020828403121561136b5761136a611205565b5b600082013567ffffffffffffffff8111156113895761138861120a565b5b61139584828501611327565b91505092915050565b6000819050919050565b6113b18161139e565b82525050565b60006020820190506113cc60008301846113a8565b92915050565b600073ffffffffffffffffffffffffffffffffffffffff82169050919050565b60006113fd826113d2565b9050919050565b61140d816113f2565b811461141857600080fd5b50565b60008135905061142a81611404565b92915050565b60006020828403121561144657611445611205565b5b60006114548482850161141b565b91505092915050565b611466816113f2565b82525050565b6000602082019050611481600083018461145d565b92915050565b6114908161139e565b811461149b57600080fd5b50565b6000813590506114ad81611487565b92915050565b6000602082840312156114c9576114c8611205565b5b60006114d78482850161149e565b91505092915050565b60008115159050919050565b6114f5816114e0565b82525050565b600060208201905061151060008301846114ec565b92915050565b600082825260208201905092915050565b7f41646d696e206f6e6c7900000000000000000000000000000000000000000000600082015250565b600061155d600a83611516565b915061156882611527565b602082019050919050565b6000602082019050818103600083015261158c81611550565b9050919050565b7f4e487b7100000000000000000000000000000000000000000000000000000000600052601160045260246000fd5b60006115cd8261139e565b91507fffffffffffffffffffffffffffffffffffffffffffffffffffffffffffffffff82036115ff576115fe611593565b5b600182019050919050565b600081519050919050565b7f4e487b7100000000000000000000000000000000000000000000000000000000600052602260045260246000fd5b6000600282049050600182168061165c57607f821691505b60208210810361166f5761166e611615565b5b50919050565b60008190508160005260206000209050919050565b60006020601f8301049050919050565b600082821b905092915050565b6000600883026116d77fffffffffffffffffffffffffffffffffffffffffffffffffffffffffffffffff8261169a565b6116e1868361169a565b95508019841693508086168417925050509392505050565b6000819050919050565b600061171e6117196117148461139e565b6116f9565b61139e565b9050919050565b6000819050919050565b61173883611703565b61174c61174482611725565b8484546116a7565b825550505050565b600090565b611761611754565b61176c81848461172f565b505050565b5b8181101561179057611785600082611759565b600181019050611772565b5050565b601f8211156117d5576117a681611675565b6117af8461168a565b810160208510156117be578190505b6117d26117ca8561168a565b830182611771565b50505b505050565b600082821c905092915050565b60006117f8600019846008026117da565b1980831691505092915050565b600061181183836117e7565b9150826002028217905092915050565b61182a8261160a565b67ffffffffffffffff8111156118435761184261122a565b5b61184d8254611644565b611858828285611794565b600060209050601f83116001811461188b5760008415611879578287015190505b6118838582611805565b8655506118eb565b601f19841661189986611675565b60005b828110156118c15784890151825560018201915060208501945060208101905061189c565b868310156118de57848901516118da601f8916826117e7565b8355505b6001600288020188555050505b505050505050565b60005b838110156119115780820151818401526020810190506118f6565b60008484015250505050565b60006119288261160a565b6119328185611516565b93506119428185602086016118f3565b61194b81611219565b840191505092915050565b600060408201905061196b60008301856113a8565b818103602083015261197d818461191d565b90509392505050565b7f4e6f742076616c696461746f7200000000000000000000000000000000000000600082015250565b60006119bc600d83611516565b91506119c782611986565b602082019050919050565b600060208201905081810360008301526119eb816119af565b9050919050565b60006119fd8261139e565b915060008203611a1057611a0f611593565b5b600182039050919050565b7f416c72656164792076616c696461746f72000000000000000000000000000000600082015250565b6000611a51601183611516565b9150611a5c82611a1b565b602082019050919050565b60006020820190508181036000830152611a8081611a44565b9050919050565b7f496e76616c69642061646d696e20616464726573730000000000000000000000600082015250565b6000611abd601583611516565b9150611ac882611a87565b602082019050919050565b60006020820190508181036000830152611aec81611ab0565b9050919050565b7f53616d652061646d696e00000000000000000000000000000000000000000000600082015250565b6000611b29600a83611516565b9150611b3482611af3565b602082019050919050565b60006020820190508181036000830152611b5881611b1c565b9050919050565b6000604082019050611b74600083018561145d565b611b81602083018461145d565b9392505050565b7f312d313030206f6e6c7900000000000000000000000000000000000000000000600082015250565b6000611bbe600a83611516565b9150611bc982611b88565b602082019050919050565b60006020820190508181036000830152611bed81611bb1565b9050919050565b7f56616c696461746f72206f6e6c79000000000000000000000000000000000000600082015250565b6000611c2a600e83611516565b9150611c3582611bf4565b602082019050919050565b60006020820190508181036000830152611c5981611c1d565b9050919050565b7f416c726561647920657865637574656400000000000000000000000000000000600082015250565b6000611c96601083611516565b9150611ca182611c60565b602082019050919050565b60006020820190508181036000830152611cc581611c89565b9050919050565b7f416c726561647920617070726f76656400000000000000000000000000000000600082015250565b6000611d02601083611516565b9150611d0d82611ccc565b602082019050919050565b60006020820190508181036000830152611d3181611cf5565b9050919050565b6000604082019050611d4d60008301856113a8565b611d5a602083018461145d565b9392505050565b6000611d6c8261139e565b9150611d778361139e565b9250828202611d858161139e565b91508282048414831517611d9c57611d9b611593565b5b5092915050565b7f4e487b7100000000000000000000000000000000000000000000000000000000600052601260045260246000fd5b6000611ddd8261139e565b9150611de88361139e565b925082611df857611df7611da3565b5b828204905092915050565b60008154611e1081611644565b611e1a8186611516565b94506001821660008114611e355760018114611e4b57611e7e565b60ff198316865281151560200286019350611e7e565b611e5485611675565b60005b83811015611e7657815481890152600182019150602081019050611e57565b808801955050505b50505092915050565b60006020820190508181036000830152611ea18184611e03565b90509291505056fea26469706673582212204eac38e6ee4c672e6aa921462afc5e9c63aecc6e65fa44eaad3f478e3b07776564736f6c63430008110033",
        "linkReferences": {}
    },
    "methodIdentifiers": {
        "addValidator(address)": "4d238c8e",
        "approvePause(uint256)": "cf1827a7",
        "approveResume(uint256)": "dbf6bafb",
        "changeAdmin(address)": "8f283970",
        "getAdmin()": "6e9960c3",
        "isValidator(address)": "facd743b",
        "removeValidator(address)": "40a141ff",
        "requestPause(string)": "02950ac5",
        "requestResume(string)": "baec956d",
        "setThreshold(uint256)": "960bfe04"
    },
    "id": 21
}