{
    "abi": [
        {
            "type": "constructor",
            "inputs": [
                {
                    "name": "_crimCheckAddr",
                    "type": "address",
                    "internalType": "address"
                }
            ],
            "stateMutability": "nonpayable"
        },
        {
            "type": "function",
            "name": "getAllCandidates",
            "inputs": [],
            "outputs": [
                {
                    "name": "",
                    "type": "address[]",
                    "internalType": "address[]"
                }
            ],
            "stateMutability": "view"
        },
        {
            "type": "function",
            "name": "getCandDetails",
            "inputs": [
                {
                    "name": "cand",
                    "type": "address",
                    "internalType": "address"
                }
            ],
            "outputs": [
                {
                    "name": "",
                    "type": "string",
                    "internalType": "string"
                },
                {
                    "name": "",
                    "type": "string",
                    "internalType": "string"
                },
                {
                    "name": "",
                    "type": "string",
                    "internalType": "string"
                }
            ],
            "stateMutability": "view"
        },
        {
            "type": "function",
            "name": "getCandsByConst",
            "inputs": [
                {
                    "name": "const",
                    "type": "string",
                    "internalType": "string"
                }
            ],
            "outputs": [
                {
                    "name": "",
                    "type": "address[]",
                    "internalType": "address[]"
                }
            ],
            "stateMutability": "view"
        },
        {
            "type": "function",
            "name": "getStatus",
            "inputs": [
                {
                    "name": "cand",
                    "type": "address",
                    "internalType": "address"
                }
            ],
            "outputs": [
                {
                    "name": "",
                    "type": "string",
                    "internalType": "string"
                }
            ],
            "stateMutability": "view"
        },
        {
            "type": "function",
            "name": "registerCandidate",
            "inputs": [
                {
                    "name": "cand",
                    "type": "address",
                    "internalType": "address"
                },
                {
                    "name": "idHash",
                    "type": "string",
                    "internalType": "string"
                },
                {
                    "name": "name",
                    "type": "string",
                    "internalType": "string"
                },
                {
                    "name": "const",
                    "type": "string",
                    "internalType": "string"
                }
            ],
            "outputs": [
                {
                    "name": "",
                    "type": "bool",
                    "internalType": "bool"
                }
            ],
            "stateMutability": "nonpayable"
        },
        {
            "type": "function",
            "name": "updateStatus",
            "inputs": [
                {
                    "name": "cand",
                    "type": "address",
                    "internalType": "address"
                },
                {
                    "name": "status",
                    "type": "string",
                    "internalType": "string"
                }
            ],
            "outputs": [
                {
                    "name": "",
                    "type": "bool",
                    "internalType": "bool"
                }
            ],
            "stateMutability": "nonpayable"
        },
        {
            "type": "event",
            "name": "CandRegistered",
            "inputs": [
                {
                    "name": "cand",
                    "type": "address",
                    "indexed": true,
                    "internalType": "address"
                },
                {
                    "name": "name",
                    "type": "string",
                    "indexed": false,
                    "internalType": "string"
                },
                {
                    "name": "const",
                    "type": "string",
                    "indexed": false,
                    "internalType": "string"
                }
            ],
            "anonymous": false
        },
        {
            "type": "event",
            "name": "StatusChanged",
            "inputs": [
                {
                    "name": "cand",
                    "type": "address",
                    "indexed": true,
                    "internalType": "address"
                },
                {
                    "name": "status",
                    "type": "string",
                    "indexed": false,
                    "internalType": "string"
                }
            ],
            "anonymous": false
        }
    ],
    "bytecode": {
        "object": "0x60806040523480156200001157600080fd5b506040516200187d3803806200187d8339818101604052810190620000379190620000e9565b80600360006101000a81548173ffffffffffffffffffffffffffffffffffffffff021916908373ffffffffffffffffffffffffffffffffffffffff160217905550506200011b565b600080fd5b600073ffffffffffffffffffffffffffffffffffffffff82169050919050565b6000620000b18262000084565b9050919050565b620000c381620000a4565b8114620000cf57600080fd5b50565b600081519050620000e381620000b8565b92915050565b6000602082840312156200010257620001016200007f565b5b60006200011284828501620000d2565b91505092915050565b611752806200012b6000396000f3fe608060405234801561001057600080fd5b50600436106100625760003560e01c806321b3f528146100675780632e6997fe1461009757806330ccebb5146100b55780639bab7f4a146100e5578063c515e60e14610115578063fd14171d14610145575b600080fd5b610081600480360381019061007c9190610e7d565b610177565b60405161008e9190610f53565b60405180910390f35b61009f610503565b6040516100ac919061102c565b60405180910390f35b6100cf60048036038101906100ca919061104e565b610591565b6040516100dc91906110fa565b60405180910390f35b6100ff60048036038101906100fa919061111c565b6106f2565b60405161010c9190610f53565b60405180910390f35b61012f600480360381019061012a9190611178565b6108b9565b60405161013c919061102c565b60405180910390f35b61015f600480360381019061015a919061104e565b610965565b60405161016e939291906111c1565b60405180910390f35b60008060008673ffffffffffffffffffffffffffffffffffffffff1673ffffffffffffffffffffffffffffffffffffffff16815260200190815260200160002060000160009054906101000a900460ff1615610208576040517f08c379a00000000000000000000000000000000000000000000000000000000081526004016101ff90611259565b60405180910390fd5b6040518060a001604052806001151581526020018581526020018481526020018381526020016040518060400160405280600781526020017f50656e64696e67000000000000000000000000000000000000000000000000008152508152506000808773ffffffffffffffffffffffffffffffffffffffff1673ffffffffffffffffffffffffffffffffffffffff16815260200190815260200160002060008201518160000160006101000a81548160ff02191690831515021790555060208201518160010190816102da919061148f565b5060408201518160020190816102f0919061148f565b506060820151816003019081610306919061148f565b50608082015181600401908161031c919061148f565b509050506001859080600181540180825580915050600190039060005260206000200160009091909190916101000a81548173ffffffffffffffffffffffffffffffffffffffff021916908373ffffffffffffffffffffffffffffffffffffffff160217905550600282604051610393919061159d565b9081526020016040518091039020859080600181540180825580915050600190039060005260206000200160009091909190916101000a81548173ffffffffffffffffffffffffffffffffffffffff021916908373ffffffffffffffffffffffffffffffffffffffff1602179055508473ffffffffffffffffffffffffffffffffffffffff167fd9f2f978faeba0e3135b0c6ccbb5c8923f379730af34d3b8b09214d7a8e3682b848460405161044a9291906115b4565b60405180910390a26000600360009054906101000a900473ffffffffffffffffffffffffffffffffffffffff1690508073ffffffffffffffffffffffffffffffffffffffff16639852378d866040518263ffffffff1660e01b81526004016104b291906110fa565b6020604051808303816000875af11580156104d1573d6000803e3d6000fd5b505050506040513d601f19601f820116820180604052508101906104f59190611617565b506001915050949350505050565b6060600180548060200260200160405190810160405280929190818152602001828054801561058757602002820191906000526020600020905b8160009054906101000a900473ffffffffffffffffffffffffffffffffffffffff1673ffffffffffffffffffffffffffffffffffffffff168152602001906001019080831161053d575b5050505050905090565b60606000808373ffffffffffffffffffffffffffffffffffffffff1673ffffffffffffffffffffffffffffffffffffffff16815260200190815260200160002060000160009054906101000a900460ff16610621576040517f08c379a000000000000000000000000000000000000000000000000000000000815260040161061890611690565b60405180910390fd5b6000808373ffffffffffffffffffffffffffffffffffffffff1673ffffffffffffffffffffffffffffffffffffffff168152602001908152602001600020600401805461066d906112a8565b80601f0160208091040260200160405190810160405280929190818152602001828054610699906112a8565b80156106e65780601f106106bb576101008083540402835291602001916106e6565b820191906000526020600020905b8154815290600101906020018083116106c957829003601f168201915b50505050509050919050565b6000600360009054906101000a900473ffffffffffffffffffffffffffffffffffffffff1673ffffffffffffffffffffffffffffffffffffffff163373ffffffffffffffffffffffffffffffffffffffff1614610784576040517f08c379a000000000000000000000000000000000000000000000000000000000815260040161077b906116fc565b60405180910390fd5b6000808473ffffffffffffffffffffffffffffffffffffffff1673ffffffffffffffffffffffffffffffffffffffff16815260200190815260200160002060000160009054906101000a900460ff16610812576040517f08c379a000000000000000000000000000000000000000000000000000000000815260040161080990611690565b60405180910390fd5b816000808573ffffffffffffffffffffffffffffffffffffffff1673ffffffffffffffffffffffffffffffffffffffff1681526020019081526020016000206004019081610860919061148f565b508273ffffffffffffffffffffffffffffffffffffffff167f954e5aee61a1bc9d7b51ab8f9fd3ac31f41bbbe97c5851bb5bf05d3e8e450c4a836040516108a791906110fa565b60405180910390a26001905092915050565b60606002826040516108cb919061159d565b908152602001604051809103902080548060200260200160405190810160405280929190818152602001828054801561095957602002820191906000526020600020905b8160009054906101000a900473ffffffffffffffffffffffffffffffffffffffff1673ffffffffffffffffffffffffffffffffffffffff168152602001906001019080831161090f575b50505050509050919050565b60608060606000808573ffffffffffffffffffffffffffffffffffffffff1673ffffffffffffffffffffffffffffffffffffffff16815260200190815260200160002060000160009054906101000a900460ff166109f8576040517f08c379a00000000000000000000000000000000000000000000000000000000081526004016109ef90611690565b60405180910390fd5b60008060008673ffffffffffffffffffffffffffffffffffffffff1673ffffffffffffffffffffffffffffffffffffffff1681526020019081526020016000206040518060a00160405290816000820160009054906101000a900460ff16151515158152602001600182018054610a6e906112a8565b80601f0160208091040260200160405190810160405280929190818152602001828054610a9a906112a8565b8015610ae75780601f10610abc57610100808354040283529160200191610ae7565b820191906000526020600020905b815481529060010190602001808311610aca57829003601f168201915b50505050508152602001600282018054610b00906112a8565b80601f0160208091040260200160405190810160405280929190818152602001828054610b2c906112a8565b8015610b795780601f10610b4e57610100808354040283529160200191610b79565b820191906000526020600020905b815481529060010190602001808311610b5c57829003601f168201915b50505050508152602001600382018054610b92906112a8565b80601f0160208091040260200160405190810160405280929190818152602001828054610bbe906112a8565b8015610c0b5780601f10610be057610100808354040283529160200191610c0b565b820191906000526020600020905b815481529060010190602001808311610bee57829003601f168201915b50505050508152602001600482018054610c24906112a8565b80601f0160208091040260200160405190810160405280929190818152602001828054610c50906112a8565b8015610c9d5780601f10610c7257610100808354040283529160200191610c9d565b820191906000526020600020905b815481529060010190602001808311610c8057829003601f168201915b5050505050815250509050806040015181606001518260800151935093509350509193909250565b6000604051905090565b600080fd5b600080fd5b600073ffffffffffffffffffffffffffffffffffffffff82169050919050565b6000610d0482610cd9565b9050919050565b610d1481610cf9565b8114610d1f57600080fd5b50565b600081359050610d3181610d0b565b92915050565b600080fd5b600080fd5b6000601f19601f8301169050919050565b7f4e487b7100000000000000000000000000000000000000000000000000000000600052604160045260246000fd5b610d8a82610d41565b810181811067ffffffffffffffff82111715610da957610da8610d52565b5b80604052505050565b6000610dbc610cc5565b9050610dc88282610d81565b919050565b600067ffffffffffffffff821115610de857610de7610d52565b5b610df182610d41565b9050602081019050919050565b82818337600083830152505050565b6000610e20610e1b84610dcd565b610db2565b905082815260208101848484011115610e3c57610e3b610d3c565b5b610e47848285610dfe565b509392505050565b600082601f830112610e6457610e63610d37565b5b8135610e74848260208601610e0d565b91505092915050565b60008060008060808587031215610e9757610e96610ccf565b5b6000610ea587828801610d22565b945050602085013567ffffffffffffffff811115610ec657610ec5610cd4565b5b610ed287828801610e4f565b935050604085013567ffffffffffffffff811115610ef357610ef2610cd4565b5b610eff87828801610e4f565b925050606085013567ffffffffffffffff811115610f2057610f1f610cd4565b5b610f2c87828801610e4f565b91505092959194509250565b60008115159050919050565b610f4d81610f38565b82525050565b6000602082019050610f686000830184610f44565b92915050565b600081519050919050565b600082825260208201905092915050565b6000819050602082019050919050565b610fa381610cf9565b82525050565b6000610fb58383610f9a565b60208301905092915050565b6000602082019050919050565b6000610fd982610f6e565b610fe38185610f79565b9350610fee83610f8a565b8060005b8381101561101f5781516110068882610fa9565b975061101183610fc1565b925050600181019050610ff2565b5085935050505092915050565b600060208201905081810360008301526110468184610fce565b905092915050565b60006020828403121561106457611063610ccf565b5b600061107284828501610d22565b91505092915050565b600081519050919050565b600082825260208201905092915050565b60005b838110156110b557808201518184015260208101905061109a565b60008484015250505050565b60006110cc8261107b565b6110d68185611086565b93506110e6818560208601611097565b6110ef81610d41565b840191505092915050565b6000602082019050818103600083015261111481846110c1565b905092915050565b6000806040838503121561113357611132610ccf565b5b600061114185828601610d22565b925050602083013567ffffffffffffffff81111561116257611161610cd4565b5b61116e85828601610e4f565b9150509250929050565b60006020828403121561118e5761118d610ccf565b5b600082013567ffffffffffffffff8111156111ac576111ab610cd4565b5b6111b884828501610e4f565b91505092915050565b600060608201905081810360008301526111db81866110c1565b905081810360208301526111ef81856110c1565b9050818103604083015261120381846110c1565b9050949350505050565b7f416c726561647920726567697374657265640000000000000000000000000000600082015250565b6000611243601283611086565b915061124e8261120d565b602082019050919050565b6000602082019050818103600083015261127281611236565b9050919050565b7f4e487b7100000000000000000000000000000000000000000000000000000000600052602260045260246000fd5b600060028204905060018216806112c057607f821691505b6020821081036112d3576112d2611279565b5b50919050565b60008190508160005260206000209050919050565b60006020601f8301049050919050565b600082821b905092915050565b60006008830261133b7fffffffffffffffffffffffffffffffffffffffffffffffffffffffffffffffff826112fe565b61134586836112fe565b95508019841693508086168417925050509392505050565b6000819050919050565b6000819050919050565b600061138c6113876113828461135d565b611367565b61135d565b9050919050565b6000819050919050565b6113a683611371565b6113ba6113b282611393565b84845461130b565b825550505050565b600090565b6113cf6113c2565b6113da81848461139d565b505050565b5b818110156113fe576113f36000826113c7565b6001810190506113e0565b5050565b601f82111561144357611414816112d9565b61141d846112ee565b8101602085101561142c578190505b611440611438856112ee565b8301826113df565b50505b505050565b600082821c905092915050565b600061146660001984600802611448565b1980831691505092915050565b600061147f8383611455565b9150826002028217905092915050565b6114988261107b565b67ffffffffffffffff8111156114b1576114b0610d52565b5b6114bb82546112a8565b6114c6828285611402565b600060209050601f8311600181146114f957600084156114e7578287015190505b6114f18582611473565b865550611559565b601f198416611507866112d9565b60005b8281101561152f5784890151825560018201915060208501945060208101905061150a565b8683101561154c5784890151611548601f891682611455565b8355505b6001600288020188555050505b505050505050565b600081905092915050565b60006115778261107b565b6115818185611561565b9350611591818560208601611097565b80840191505092915050565b60006115a9828461156c565b915081905092915050565b600060408201905081810360008301526115ce81856110c1565b905081810360208301526115e281846110c1565b90509392505050565b6115f481610f38565b81146115ff57600080fd5b50565b600081519050611611816115eb565b92915050565b60006020828403121561162d5761162c610ccf565b5b600061163b84828501611602565b91505092915050565b7f4e6f742072656769737465726564000000000000000000000000000000000000600082015250565b600061167a600e83611086565b915061168582611644565b602082019050919050565b600060208201905081810360008301526116a98161166d565b9050919050565b7f556e617574686f72697a65640000000000000000000000000000000000000000600082015250565b60006116e6600c83611086565b91506116f1826116b0565b602082019050919050565b60006020820190508181036000830152611715816116d9565b905091905056fea264697066735822122031f4314fbf20da96fd53048f56b6d5ad07d5a5706e2ae6308d93dabd2023751964736f6c63430008110033",
        "linkReferences": {}
    },
    "methodIdentifiers": {
        "getAllCandidates()": "2e6997fe",
        "getCandDetails(address)": "fd14171d",
        "getCandsByConst(string)": "c515e60e",
        "getStatus(address)": "30ccebb5",
        "registerCandidate(address,string,string,string)": "21b3f528",
        "updateStatus(address,string)": "9bab7f4a"
    },
    "id": 22
}