{
    "abi": [
        {
            "type": "constructor",
            "inputs": [],
            "stateMutability": "nonpayable"
        },
        {
            "type": "function",
            "name": "verifyCriminalRecord",
            "inputs": [
                {
                    "name": "idHash",
                    "type": "string",
                    "internalType": "string"
                }
            ],
            "outputs": [],
            "stateMutability": "nonpayable"
        }
    ],
    "bytecode": {
        "object": "0x608060405234801561001057600080fd5b50336000806101000a81548173ffffffffffffffffffffffffffffffffffffffff021916908373ffffffffffffffffffffffffffffffffffffffff16021790555061041d806100606000396000f3fe608060405234801561001057600080fd5b506004361061002b5760003560e01c80639852378d14610030575b600080fd5b61004a60048036038101906100459190610205565b61004c565b005b60003290506000605860f81b8484600081811061006c5761006b610252565b5b9050013560f81c60f81b7effffffffffffffffffffffffffffffffffffffffffffffffffffffffffffff1916146100d8576040518060400160405280600881526020017f417070726f76656400000000000000000000000000000000000000000000000081525061010f565b6040518060400160405280600881526020017f52656a65637465640000000000000000000000000000000000000000000000008152505b90503373ffffffffffffffffffffffffffffffffffffffff16639bab7f4a83836040518363ffffffff1660e01b815260040161014c929190610352565b6020604051808303816000875af115801561016b573d6000803e3d6000fd5b505050506040513d601f19601f8201168201806040525081019061018f91906103ba565b5050505050565b600080fd5b600080fd5b600080fd5b600080fd5b600080fd5b60008083601f8401126101c5576101c46101a0565b5b8235905067ffffffffffffffff8111156101e2576101e16101a5565b5b6020830191508360018202830111156101fe576101fd6101aa565b5b9250929050565b6000806020838503121561021c5761021b610196565b5b600083013567ffffffffffffffff81111561023a5761023961019b565b5b610246858286016101af565b92509250509250929050565b7f4e487b7100000000000000000000000000000000000000000000000000000000600052603260045260246000fd5b600073ffffffffffffffffffffffffffffffffffffffff82169050919050565b60006102ac82610281565b9050919050565b6102bc816102a1565b82525050565b600081519050919050565b600082825260208201905092915050565b60005b838110156102fc5780820151818401526020810190506102e1565b60008484015250505050565b6000601f19601f8301169050919050565b6000610324826102c2565b61032e81856102cd565b935061033e8185602086016102de565b61034781610308565b840191505092915050565b600060408201905061036760008301856102b3565b81810360208301526103798184610319565b90509392505050565b60008115159050919050565b61039781610382565b81146103a257600080fd5b50565b6000815190506103b48161038e565b92915050565b6000602082840312156103d0576103cf610196565b5b60006103de848285016103a5565b9150509291505056fea264697066735822122059e8f762c63337e80de61c92fdcf3725b6986f2534dd82eff753c920105c778d64736f6c63430008110033",
        "linkReferences": {}
    },
    "methodIdentifiers": {
        "verifyCriminalRecord(string)": "9852378d"
    },
    "id": 23
}