{
    "abi": [
        {
            "type": "function",
            "name": "getConstituency",
            "inputs": [
                {
                    "name": "voter",
                    "type": "address",
                    "internalType": "address"
                }
            ],
            "outputs": [
                {
                    "name": "",
                    "type": "string",
                    "internalType": "string"
                }
            ],
            "stateMutability": "view"
        },
        {
            "type": "function",
            "name": "hasVoted",
            "inputs": [
                {
                    "name": "voter",
                    "type": "address",
                    "internalType": "address"
                }
            ],
            "outputs": [
                {
                    "name": "",
                    "type": "bool",
                    "internalType": "bool"
                }
            ],
            "stateMutability": "view"
        },
        {
            "type": "function",
            "name": "isRegistered",
            "inputs": [
                {
                    "name": "voter",
                    "type": "address",
                    "internalType": "address"
                }
            ],
            "outputs": [
                {
                    "name": "",
                    "type": "bool",
                    "internalType": "bool"
                }
            ],
            "stateMutability": "view"
        },
        {
            "type": "function",
            "name": "markVoted",
            "inputs": [
                {
                    "name": "voter",
                    "type": "address",
                    "internalType": "address"
                }
            ],
            "outputs": [
                {
                    "name": "",
                    "type": "bool",
                    "internalType": "bool"
                }
            ],
            "stateMutability": "nonpayable"
        },
        {
            "type": "function",
            "name": "registerVoter",
            "inputs": [
                {
                    "name": "voter",
                    "type": "address",
                    "internalType": "address"
                },
                {
                    "name": "idHash",
                    "type": "string",
                    "internalType": "string"
                },
                {
                    "name": "const",
                    "type": "string",
                    "internalType": "string"
                }
            ],
            "outputs": [
                {
                    "name": "",
                    "type": "bool",
                    "internalType": "bool"
                }
            ],
            "stateMutability": "nonpayable"
        },
        {
            "type": "event",
            "name": "VoterHasVoted",
            "inputs": [
                {
                    "name": "voter",
                    "type": "address",
                    "indexed": true,
                    "internalType": "address"
                }
            ],
            "anonymous": false
        },
        {
            "type": "event",
            "name": "VoterRegistered",
            "inputs": [
                {
                    "name": "voter",
                    "type": "address",
                    "indexed": true,
                    "internalType": "address"
                },
                {
                    "name": "const",
                    "type": "string",
                    "indexed": false,
                    "internalType": "string"
                }
            ],
            "anonymous": false
        }
    ],
    "bytecode": {
        "object": "0x608060405234801561001057600080fd5b50610fea806100206000396000f3fe608060405234801561001057600080fd5b50600436106100575760003560e01c806309eef43e1461005c57806396419f751461008c578063a8fd0cfa146100bc578063bb8fab8e146100ec578063c3c5a5471461011c575b600080fd5b610076600480360381019061007191906107f4565b61014c565b604051610083919061083c565b60405180910390f35b6100a660048036038101906100a191906107f4565b6101a4565b6040516100b391906108e7565b60405180910390f35b6100d660048036038101906100d191906107f4565b610305565b6040516100e3919061083c565b60405180910390f35b61010660048036038101906101019190610a3e565b6104ca565b604051610113919061083c565b60405180910390f35b610136600480360381019061013191906107f4565b61072a565b604051610143919061083c565b60405180910390f35b60008060008373ffffffffffffffffffffffffffffffffffffffff1673ffffffffffffffffffffffffffffffffffffffff16815260200190815260200160002060000160019054906101000a900460ff169050919050565b60606000808373ffffffffffffffffffffffffffffffffffffffff1673ffffffffffffffffffffffffffffffffffffffff16815260200190815260200160002060000160009054906101000a900460ff16610234576040517f08c379a000000000000000000000000000000000000000000000000000000000815260040161022b90610b15565b60405180910390fd5b6000808373ffffffffffffffffffffffffffffffffffffffff1673ffffffffffffffffffffffffffffffffffffffff168152602001908152602001600020600101805461028090610b64565b80601f01602080910402602001604051908101604052809291908181526020018280546102ac90610b64565b80156102f95780601f106102ce576101008083540402835291602001916102f9565b820191906000526020600020905b8154815290600101906020018083116102dc57829003601f168201915b50505050509050919050565b60008060008373ffffffffffffffffffffffffffffffffffffffff1673ffffffffffffffffffffffffffffffffffffffff16815260200190815260200160002060000160009054906101000a900460ff16610395576040517f08c379a000000000000000000000000000000000000000000000000000000000815260040161038c90610b15565b60405180910390fd5b6000808373ffffffffffffffffffffffffffffffffffffffff1673ffffffffffffffffffffffffffffffffffffffff16815260200190815260200160002060000160019054906101000a900460ff1615610424576040517f08c379a000000000000000000000000000000000000000000000000000000000815260040161041b90610be1565b60405180910390fd5b60016000808473ffffffffffffffffffffffffffffffffffffffff1673ffffffffffffffffffffffffffffffffffffffff16815260200190815260200160002060000160016101000a81548160ff0219169083151502179055508173ffffffffffffffffffffffffffffffffffffffff167f775d934c99b92a1f0c9b335a462c5deddb1c3aac3c004fa1366e9ac5f8a40dad60405160405180910390a260019050919050565b60008060008573ffffffffffffffffffffffffffffffffffffffff1673ffffffffffffffffffffffffffffffffffffffff16815260200190815260200160002060000160009054906101000a900460ff161561055b576040517f08c379a000000000000000000000000000000000000000000000000000000000815260040161055290610c4d565b60405180910390fd5b60018360405161056b9190610ca9565b908152602001604051809103902060009054906101000a900460ff16156105c7576040517f08c379a00000000000000000000000000000000000000000000000000000000081526004016105be90610d0c565b60405180910390fd5b6040518060800160405280600115158152602001600015158152602001838152602001848152506000808673ffffffffffffffffffffffffffffffffffffffff1673ffffffffffffffffffffffffffffffffffffffff16815260200190815260200160002060008201518160000160006101000a81548160ff02191690831515021790555060208201518160000160016101000a81548160ff02191690831515021790555060408201518160010190816106819190610ee2565b5060608201518160020190816106979190610ee2565b50905050600180846040516106ac9190610ca9565b908152602001604051809103902060006101000a81548160ff0219169083151502179055508373ffffffffffffffffffffffffffffffffffffffff167fffeb7702be7dcd8fee170d954b70afb9a7c78f7f5cff232d037e7b9d8243356a8360405161071791906108e7565b60405180910390a2600190509392505050565b60008060008373ffffffffffffffffffffffffffffffffffffffff1673ffffffffffffffffffffffffffffffffffffffff16815260200190815260200160002060000160009054906101000a900460ff169050919050565b6000604051905090565b600080fd5b600080fd5b600073ffffffffffffffffffffffffffffffffffffffff82169050919050565b60006107c182610796565b9050919050565b6107d1816107b6565b81146107dc57600080fd5b50565b6000813590506107ee816107c8565b92915050565b60006020828403121561080a5761080961078c565b5b6000610818848285016107df565b91505092915050565b60008115159050919050565b61083681610821565b82525050565b6000602082019050610851600083018461082d565b92915050565b600081519050919050565b600082825260208201905092915050565b60005b83811015610891578082015181840152602081019050610876565b60008484015250505050565b6000601f19601f8301169050919050565b60006108b982610857565b6108c38185610862565b93506108d3818560208601610873565b6108dc8161089d565b840191505092915050565b6000602082019050818103600083015261090181846108ae565b905092915050565b600080fd5b600080fd5b7f4e487b7100000000000000000000000000000000000000000000000000000000600052604160045260246000fd5b61094b8261089d565b810181811067ffffffffffffffff8211171561096a57610969610913565b5b80604052505050565b600061097d610782565b90506109898282610942565b919050565b600067ffffffffffffffff8211156109a9576109a8610913565b5b6109b28261089d565b9050602081019050919050565b82818337600083830152505050565b60006109e16109dc8461098e565b610973565b9050828152602081018484840111156109fd576109fc61090e565b5b610a088482856109bf565b509392505050565b600082601f830112610a2557610a24610909565b5b8135610a358482602086016109ce565b91505092915050565b600080600060608486031215610a5757610a5661078c565b5b6000610a65868287016107df565b935050602084013567ffffffffffffffff811115610a8657610a85610791565b5b610a9286828701610a10565b925050604084013567ffffffffffffffff811115610ab357610ab2610791565b5b610abf86828701610a10565b9150509250925092565b7f4e6f742072656769737465726564000000000000000000000000000000000000600082015250565b6000610aff600e83610862565b9150610b0a82610ac9565b602082019050919050565b60006020820190508181036000830152610b2e81610af2565b9050919050565b7f4e487b7100000000000000000000000000000000000000000000000000000000600052602260045260246000fd5b60006002820490506001821680610b7c57607f821691505b602082108103610b8f57610b8e610b35565b5b50919050565b7f416c726561647920766f74656400000000000000000000000000000000000000600082015250565b6000610bcb600d83610862565b9150610bd682610b95565b602082019050919050565b60006020820190508181036000830152610bfa81610bbe565b9050919050565b7f416c726561647920726567697374657265640000000000000000000000000000600082015250565b6000610c37601283610862565b9150610c4282610c01565b602082019050919050565b60006020820190508181036000830152610c6681610c2a565b9050919050565b600081905092915050565b6000610c8382610857565b610c8d8185610c6d565b9350610c9d818560208601610873565b80840191505092915050565b6000610cb58284610c78565b915081905092915050565b7f494420616c726561647920757365640000000000000000000000000000000000600082015250565b6000610cf6600f83610862565b9150610d0182610cc0565b602082019050919050565b60006020820190508181036000830152610d2581610ce9565b9050919050565b60008190508160005260206000209050919050565b60006020601f8301049050919050565b600082821b905092915050565b600060088302610d8e7fffffffffffffffffffffffffffffffffffffffffffffffffffffffffffffffff82610d51565b610d988683610d51565b95508019841693508086168417925050509392505050565b6000819050919050565b6000819050919050565b6000610ddf610dda610dd584610db0565b610dba565b610db0565b9050919050565b6000819050919050565b610df983610dc4565b610e0d610e0582610de6565b848454610d5e565b825550505050565b600090565b610e22610e15565b610e2d818484610df0565b505050565b5b81811015610e5157610e46600082610e1a565b600181019050610e33565b5050565b601f821115610e9657610e6781610d2c565b610e7084610d41565b81016020851015610e7f578190505b610e93610e8b85610d41565b830182610e32565b50505b505050565b600082821c905092915050565b6000610eb960001984600802610e9b565b1980831691505092915050565b6000610ed28383610ea8565b9150826002028217905092915050565b610eeb82610857565b67ffffffffffffffff811115610f0457610f03610913565b5b610f0e8254610b64565b610f19828285610e55565b600060209050601f831160018114610f4c5760008415610f3a578287015190505b610f448582610ec6565b865550610fac565b601f198416610f5a86610d2c565b60005b82811015610f8257848901518255600182019150602085019450602081019050610f5d565b86831015610f9f5784890151610f9b601f891682610ea8565b8355505b6001600288020188555050505b50505050505056fea2646970667358221220e86f4359ef9251f96e391d5e3ccb28ed408214d9f58884d4088c042f84f3230764736f6c63430008110033",
        "linkReferences": {}
    },
    "methodIdentifiers": {
        "getConstituency(address)": "96419f75",
        "hasVoted(address)": "09eef43e",
        "isRegistered(address)": "c3c5a547",
        "markVoted(address)": "a8fd0cfa",
        "registerVoter(address,string,string)": "bb8fab8e"
    },
    "id": 27
}