{
    "abi": [
        {
            "type": "function",
            "name": "getTotalVotes",
            "inputs": [
                {
                    "name": "",
                    "type": "string",
                    "internalType": "string"
                }
            ],
            "outputs": [
                {
                    "name": "",
                    "type": "uint256",
                    "internalType": "uint256"
                }
            ],
            "stateMutability": "view"
        },
        {
            "type": "function",
            "name": "getVotesByConst",
            "inputs": [
                {
                    "name": "",
                    "type": "string",
                    "internalType": "string"
                }
            ],
            "outputs": [
                {
                    "name": "",
                    "type": "address[]",
                    "internalType": "address[]"
                },
                {
                    "name": "",
                    "type": "uint256[]",
                    "internalType": "uint256[]"
                }
            ],
            "stateMutability": "pure"
        },
        {
            "type": "function",
            "name": "lastPaused",
            "inputs": [],
            "outputs": [
                {
                    "name": "",
                    "type": "string",
                    "internalType": "string"
                }
            ],
            "stateMutability": "view"
        },
        {
            "type": "function",
            "name": "lastResumed",
            "inputs": [],
            "outputs": [
                {
                    "name": "",
                    "type": "string",
                    "internalType": "string"
                }
            ],
            "stateMutability": "view"
        },
        {
            "type": "function",
            "name": "pauseVoting",
            "inputs": [
                {
                    "name": "constName",
                    "type": "string",
                    "internalType": "string"
                }
            ],
            "outputs": [],
            "stateMutability": "nonpayable"
        },
        {
            "type": "function",
            "name": "resumeVoting",
            "inputs": [
                {
                    "name": "constName",
                    "type": "string",
                    "internalType": "string"
                }
            ],
            "outputs": [],
            "stateMutability": "nonpayable"
        },
        {
            "type": "function",
            "name": "totalVotes",
            "inputs": [],
            "outputs": [
                {
                    "name": "",
                    "type": "uint256",
                    "internalType": "uint256"
                }
            ],
            "stateMutability": "view"
        }
    ],
    "bytecode": {
        "object": "0x608060405234801561001057600080fd5b50610ae4806100206000396000f3fe608060405234801561001057600080fd5b506004361061007d5760003560e01c8063e5f2d84c1161005b578063e5f2d84c146100ee578063e91165c81461010a578063ecad261714610126578063ecdc0d4d146101575761007d565b80630d15fd77146100825780632bb3111d146100a057806398d16f75146100be575b600080fd5b61008a610175565b604051610097919061038c565b60405180910390f35b6100a861017b565b6040516100b59190610437565b60405180910390f35b6100d860048036038101906100d391906105a2565b610209565b6040516100e5919061038c565b60405180910390f35b610108600480360381019061010391906105a2565b610215565b005b610124600480360381019061011f91906105a2565b610228565b005b610140600480360381019061013b91906105a2565b61023b565b60405161014e929190610799565b60405180910390f35b61015f6102e5565b60405161016c9190610437565b60405180910390f35b60025481565b60018054610188906107ff565b80601f01602080910402602001604051908101604052809291908181526020018280546101b4906107ff565b80156102015780601f106101d657610100808354040283529160200191610201565b820191906000526020600020905b8154815290600101906020018083116101e457829003601f168201915b505050505081565b60006002549050919050565b806001908161022491906109dc565b5050565b806000908161023791906109dc565b5050565b60608060008067ffffffffffffffff81111561025a57610259610477565b5b6040519080825280602002602001820160405280156102885781602001602082028036833780820191505090505b50905060008067ffffffffffffffff8111156102a7576102a6610477565b5b6040519080825280602002602001820160405280156102d55781602001602082028036833780820191505090505b5090508181935093505050915091565b600080546102f2906107ff565b80601f016020809104026020016040519081016040528092919081815260200182805461031e906107ff565b801561036b5780601f106103405761010080835404028352916020019161036b565b820191906000526020600020905b81548152906001019060200180831161034e57829003601f168201915b505050505081565b6000819050919050565b61038681610373565b82525050565b60006020820190506103a1600083018461037d565b92915050565b600081519050919050565b600082825260208201905092915050565b60005b838110156103e15780820151818401526020810190506103c6565b60008484015250505050565b6000601f19601f8301169050919050565b6000610409826103a7565b61041381856103b2565b93506104238185602086016103c3565b61042c816103ed565b840191505092915050565b6000602082019050818103600083015261045181846103fe565b905092915050565b6000604051905090565b600080fd5b600080fd5b600080fd5b600080fd5b7f4e487b7100000000000000000000000000000000000000000000000000000000600052604160045260246000fd5b6104af826103ed565b810181811067ffffffffffffffff821117156104ce576104cd610477565b5b80604052505050565b60006104e1610459565b90506104ed82826104a6565b919050565b600067ffffffffffffffff82111561050d5761050c610477565b5b610516826103ed565b9050602081019050919050565b82818337600083830152505050565b6000610545610540846104f2565b6104d7565b90508281526020810184848401111561056157610560610472565b5b61056c848285610523565b509392505050565b600082601f8301126105895761058861046d565b5b8135610599848260208601610532565b91505092915050565b6000602082840312156105b8576105b7610463565b5b600082013567ffffffffffffffff8111156105d6576105d5610468565b5b6105e284828501610574565b91505092915050565b600081519050919050565b600082825260208201905092915050565b6000819050602082019050919050565b600073ffffffffffffffffffffffffffffffffffffffff82169050919050565b600061064282610617565b9050919050565b61065281610637565b82525050565b60006106648383610649565b60208301905092915050565b6000602082019050919050565b6000610688826105eb565b61069281856105f6565b935061069d83610607565b8060005b838110156106ce5781516106b58882610658565b97506106c083610670565b9250506001810190506106a1565b5085935050505092915050565b600081519050919050565b600082825260208201905092915050565b6000819050602082019050919050565b61071081610373565b82525050565b60006107228383610707565b60208301905092915050565b6000602082019050919050565b6000610746826106db565b61075081856106e6565b935061075b836106f7565b8060005b8381101561078c5781516107738882610716565b975061077e8361072e565b92505060018101905061075f565b5085935050505092915050565b600060408201905081810360008301526107b3818561067d565b905081810360208301526107c7818461073b565b90509392505050565b7f4e487b7100000000000000000000000000000000000000000000000000000000600052602260045260246000fd5b6000600282049050600182168061081757607f821691505b60208210810361082a576108296107d0565b5b50919050565b60008190508160005260206000209050919050565b60006020601f8301049050919050565b600082821b905092915050565b6000600883026108927fffffffffffffffffffffffffffffffffffffffffffffffffffffffffffffffff82610855565b61089c8683610855565b95508019841693508086168417925050509392505050565b6000819050919050565b60006108d96108d46108cf84610373565b6108b4565b610373565b9050919050565b6000819050919050565b6108f3836108be565b6109076108ff826108e0565b848454610862565b825550505050565b600090565b61091c61090f565b6109278184846108ea565b505050565b5b8181101561094b57610940600082610914565b60018101905061092d565b5050565b601f8211156109905761096181610830565b61096a84610845565b81016020851015610979578190505b61098d61098585610845565b83018261092c565b50505b505050565b600082821c905092915050565b60006109b360001984600802610995565b1980831691505092915050565b60006109cc83836109a2565b9150826002028217905092915050565b6109e5826103a7565b67ffffffffffffffff8111156109fe576109fd610477565b5b610a0882546107ff565b610a1382828561094f565b600060209050601f831160018114610a465760008415610a34578287015190505b610a3e85826109c0565b865550610aa6565b601f198416610a5486610830565b60005b82811015610a7c57848901518255600182019150602085019450602081019050610a57565b86831015610a995784890151610a95601f8916826109a2565b8355505b6001600288020188555050505b50505050505056fea2646970667358221220a19b749b568808a788336b0e5692949cdf70e988bbc13aec94a3161c678ac1d464736f6c63430008110033",
        "linkReferences": {}
    },
    "methodIdentifiers": {
        "getTotalVotes(string)": "98d16f75",
        "getVotesByConst(string)": "ecad2617",
        "lastPaused()": "ecdc0d4d",
        "lastResumed()": "2bb3111d",
        "pauseVoting(string)": "e91165c8",
        "resumeVoting(string)": "e5f2d84c",
        "totalVotes()": "0d15fd77"
    },
    "id": 30
}