{
    "abi": [
        {
            "type": "constructor",
            "inputs": [
                {
                    "name": "_voterRegAddr",
                    "type": "address",
                    "internalType": "address"
                },
                {
                    "name": "_candRegAddr",
                    "type": "address",
                    "internalType": "address"
                }
            ],
            "stateMutability": "nonpayable"
        },
        {
            "type": "function",
            "name": "castVote",
            "inputs": [
                {
                    "name": "cand",
                    "type": "address",
                    "internalType": "address"
                }
            ],
            "outputs": [
                {
                    "name": "",
                    "type": "bool",
                    "internalType": "bool"
                }
            ],
            "stateMutability": "nonpayable"
        },
        {
            "type": "function",
            "name": "getTotalVotes",
            "inputs": [
                {
                    "name": "const",
                    "type": "string",
                    "internalType": "string"
                }
            ],
            "outputs": [
                {
                    "name": "",
                    "type": "uint256",
                    "internalType": "uint256"
                }
            ],
            "stateMutability": "view"
        },
        {
            "type": "function",
            "name": "getVoteCount",
            "inputs": [
                {
                    "name": "const",
                    "type": "string",
                    "internalType": "string"
                },
                {
                    "name": "cand",
                    "type": "address",
                    "internalType": "address"
                }
            ],
            "outputs": [
                {
                    "name": "",
                    "type": "uint256",
                    "internalType": "uint256"
                }
            ],
            "stateMutability": "view"
        },
        {
            "type": "function",
            "name": "getVotesByConst",
            "inputs": [
                {
                    "name": "const",
                    "type": "string",
                    "internalType": "string"
                }
            ],
            "outputs": [
                {
                    "name": "",
                    "type": "address[]",
                    "internalType": "address[]"
                },
                {
                    "name": "",
                    "type": "uint256[]",
                    "internalType": "uint256[]"
                }
            ],
            "stateMutability": "view"
        },
        {
            "type": "function",
            "name": "isVotingPaused",
            "inputs": [
                {
                    "name": "const",
                    "type": "string",
                    "internalType": "string"
                }
            ],
            "outputs": [
                {
                    "name": "",
                    "type": "bool",
                    "internalType": "bool"
                }
            ],
            "stateMutability": "view"
        },
        {
            "type": "function",
            "name": "pauseVoting",
            "inputs": [
                {
                    "name": "const",
                    "type": "string",
                    "internalType": "string"
                }
            ],
            "outputs": [],
            "stateMutability": "nonpayable"
        },
        {
            "type": "function",
            "name": "resumeVoting",
            "inputs": [
                {
                    "name": "const",
                    "type": "string",
                    "internalType": "string"
                }
            ],
            "outputs": [],
            "stateMutability": "nonpayable"
        },
        {
            "type": "event",
            "name": "VoteCast",
            "inputs": [
                {
                    "name": "voter",
                    "type": "address",
                    "indexed": true,
                    "internalType": "address"
                },
                {
                    "name": "const",
                    "type": "string",
                    "indexed": false,
                    "internalType": "string"
                }
            ],
            "anonymous": false
        },
        {
            "type": "event",
            "name": "VotingPaused",
            "inputs": [
                {
                    "name": "const",
                    "type": "string",
                    "indexed": false,
                    "internalType": "string"
                }
            ],
            "anonymous": false
        },
        {
            "type": "event",
            "name": "VotingResumed",
            "inputs": [
                {
                    "name": "const",
                    "type": "string",
                    "indexed": false,
                    "internalType": "string"
                }
            ],
            "anonymous": false
        }
    ],
    "bytecode": {
        "object": "0x60806040523480156200001157600080fd5b50604051620018353803806200183583398181016040528101906200003791906200012a565b816000806101000a81548173ffffffffffffffffffffffffffffffffffffffff021916908373ffffffffffffffffffffffffffffffffffffffff16021790555080600160006101000a81548173ffffffffffffffffffffffffffffffffffffffff021916908373ffffffffffffffffffffffffffffffffffffffff160217905550505062000171565b600080fd5b600073ffffffffffffffffffffffffffffffffffffffff82169050919050565b6000620000f282620000c5565b9050919050565b6200010481620000e5565b81146200011057600080fd5b50565b6000815190506200012481620000f9565b92915050565b60008060408385031215620001445762000143620000c0565b5b6000620001548582860162000113565b9250506020620001678582860162000113565b9150509250929050565b6116b480620001816000396000f3fe608060405234801561001057600080fd5b506004361061007d5760003560e01c8063daef16931161005b578063daef169314610112578063e5f2d84c14610142578063e91165c81461015e578063ecad26171461017a5761007d565b8063272f67161461008257806353358fc4146100b257806398d16f75146100e2575b600080fd5b61009c60048036038101906100979190610c72565b6101ab565b6040516100a99190610cd6565b60405180910390f35b6100cc60048036038101906100c79190610d4f565b6101e0565b6040516100d99190610cd6565b60405180910390f35b6100fc60048036038101906100f79190610c72565b6107ea565b6040516101099190610d95565b60405180910390f35b61012c60048036038101906101279190610db0565b610812565b6040516101399190610d95565b60405180910390f35b61015c60048036038101906101579190610c72565b610878565b005b61017860048036038101906101739190610c72565b6108e9565b005b610194600480360381019061018f9190610c72565b61095a565b6040516101a2929190610f88565b60405180910390f35b60006002826040516101bd9190611030565b908152602001604051809103902060009054906101000a900460ff169050919050565b60008060008054906101000a900473ffffffffffffffffffffffffffffffffffffffff1690506000600160009054906101000a900473ffffffffffffffffffffffffffffffffffffffff1690508173ffffffffffffffffffffffffffffffffffffffff1663c3c5a547336040518263ffffffff1660e01b81526004016102669190611056565b602060405180830381865afa158015610283573d6000803e3d6000fd5b505050506040513d601f19601f820116820180604052508101906102a7919061109d565b6102e6576040517f08c379a00000000000000000000000000000000000000000000000000000000081526004016102dd90611127565b60405180910390fd5b8173ffffffffffffffffffffffffffffffffffffffff166309eef43e336040518263ffffffff1660e01b815260040161031f9190611056565b602060405180830381865afa15801561033c573d6000803e3d6000fd5b505050506040513d601f19601f82011682018060405250810190610360919061109d565b156103a0576040517f08c379a000000000000000000000000000000000000000000000000000000000815260040161039790611193565b60405180910390fd5b60008273ffffffffffffffffffffffffffffffffffffffff166396419f75336040518263ffffffff1660e01b81526004016103db9190611056565b600060405180830381865afa1580156103f8573d6000803e3d6000fd5b505050506040513d6000823e3d601f19601f820116820180604052508101906104219190611223565b90506002816040516104339190611030565b908152602001604051809103902060009054906101000a900460ff161561048f576040517f08c379a0000000000000000000000000000000000000000000000000000000008152600401610486906112b8565b60405180910390fd5b60008273ffffffffffffffffffffffffffffffffffffffff166330ccebb5876040518263ffffffff1660e01b81526004016104ca9190611056565b600060405180830381865afa1580156104e7573d6000803e3d6000fd5b505050506040513d6000823e3d601f19601f820116820180604052508101906105109190611223565b90506040518060400160405280600881526020017f417070726f76656400000000000000000000000000000000000000000000000081525080519060200120818051906020012014610597576040517f08c379a000000000000000000000000000000000000000000000000000000000815260040161058e90611324565b60405180910390fd5b60008373ffffffffffffffffffffffffffffffffffffffff1663fd14171d886040518263ffffffff1660e01b81526004016105d29190611056565b600060405180830381865afa1580156105ef573d6000803e3d6000fd5b505050506040513d6000823e3d601f19601f820116820180604052508101906106189190611344565b50509050808051906020012083805190602001201461066c576040517f08c379a000000000000000000000000000000000000000000000000000000000815260040161066390611437565b60405180910390fd5b8473ffffffffffffffffffffffffffffffffffffffff1663a8fd0cfa336040518263ffffffff1660e01b81526004016106a59190611056565b6020604051808303816000875af11580156106c4573d6000803e3d6000fd5b505050506040513d601f19601f820116820180604052508101906106e8919061109d565b506003836040516106f99190611030565b908152602001604051809103902060008873ffffffffffffffffffffffffffffffffffffffff1673ffffffffffffffffffffffffffffffffffffffff168152602001908152602001600020600081548092919061075590611486565b919050555060048360405161076a9190611030565b9081526020016040518091039020600081548092919061078990611486565b91905055503373ffffffffffffffffffffffffffffffffffffffff167f866dc605853954ffa419910eb05d67f430efec2e7db7ce135bf55565667a4ab4846040516107d49190611507565b60405180910390a2600195505050505050919050565b60006004826040516107fc9190611030565b9081526020016040518091039020549050919050565b60006003836040516108249190611030565b908152602001604051809103902060008373ffffffffffffffffffffffffffffffffffffffff1673ffffffffffffffffffffffffffffffffffffffff16815260200190815260200160002054905092915050565b600060028260405161088a9190611030565b908152602001604051809103902060006101000a81548160ff0219169083151502179055507f326b58937b050e94c78021010a5b85846a4e714bc4a50291526ef33de9dc54fe816040516108de9190611507565b60405180910390a150565b60016002826040516108fb9190611030565b908152602001604051809103902060006101000a81548160ff0219169083151502179055507f68f602f889f1f1cf5755ee19ef230cd7c3afc8d865c4fa2cc250151d9e21e1258160405161094f9190611507565b60405180910390a150565b6060806000600160009054906101000a900473ffffffffffffffffffffffffffffffffffffffff16905060008173ffffffffffffffffffffffffffffffffffffffff1663c515e60e866040518263ffffffff1660e01b81526004016109bf9190611507565b600060405180830381865afa1580156109dc573d6000803e3d6000fd5b505050506040513d6000823e3d601f19601f82011682018060405250810190610a059190611606565b90506000815167ffffffffffffffff811115610a2457610a23610b47565b5b604051908082528060200260200182016040528015610a525781602001602082028036833780820191505090505b50905060005b8251811015610b0957600387604051610a719190611030565b90815260200160405180910390206000848381518110610a9457610a9361164f565b5b602002602001015173ffffffffffffffffffffffffffffffffffffffff1673ffffffffffffffffffffffffffffffffffffffff16815260200190815260200160002054828281518110610aea57610ae961164f565b5b6020026020010181815250508080610b0190611486565b915050610a58565b50818194509450505050915091565b6000604051905090565b600080fd5b600080fd5b600080fd5b600080fd5b6000601f19601f8301169050919050565b7f4e487b7100000000000000000000000000000000000000000000000000000000600052604160045260246000fd5b610b7f82610b36565b810181811067ffffffffffffffff82111715610b9e57610b9d610b47565b5b80604052505050565b6000610bb1610b18565b9050610bbd8282610b76565b919050565b600067ffffffffffffffff821115610bdd57610bdc610b47565b5b610be682610b36565b9050602081019050919050565b82818337600083830152505050565b6000610c15610c1084610bc2565b610ba7565b905082815260208101848484011115610c3157610c30610b31565b5b610c3c848285610bf3565b509392505050565b600082601f830112610c5957610c58610b2c565b5b8135610c69848260208601610c02565b91505092915050565b600060208284031215610c8857610c87610b22565b5b600082013567ffffffffffffffff811115610ca657610ca5610b27565b5b610cb284828501610c44565b91505092915050565b60008115159050919050565b610cd081610cbb565b82525050565b6000602082019050610ceb6000830184610cc7565b92915050565b600073ffffffffffffffffffffffffffffffffffffffff82169050919050565b6000610d1c82610cf1565b9050919050565b610d2c81610d11565b8114610d3757600080fd5b50565b600081359050610d4981610d23565b92915050565b600060208284031215610d6557610d64610b22565b5b6000610d7384828501610d3a565b91505092915050565b6000819050919050565b610d8f81610d7c565b82525050565b6000602082019050610daa6000830184610d86565b92915050565b60008060408385031215610dc757610dc6610b22565b5b600083013567ffffffffffffffff811115610de557610de4610b27565b5b610df185828601610c44565b9250506020610e0285828601610d3a565b9150509250929050565b600081519050919050565b600082825260208201905092915050565b6000819050602082019050919050565b610e4181610d11565b82525050565b6000610e538383610e38565b60208301905092915050565b6000602082019050919050565b6000610e7782610e0c565b610e818185610e17565b9350610e8c83610e28565b8060005b83811015610ebd578151610ea48882610e47565b9750610eaf83610e5f565b925050600181019050610e90565b5085935050505092915050565b600081519050919050565b600082825260208201905092915050565b6000819050602082019050919050565b610eff81610d7c565b82525050565b6000610f118383610ef6565b60208301905092915050565b6000602082019050919050565b6000610f3582610eca565b610f3f8185610ed5565b9350610f4a83610ee6565b8060005b83811015610f7b578151610f628882610f05565b9750610f6d83610f1d565b925050600181019050610f4e565b5085935050505092915050565b60006040820190508181036000830152610fa28185610e6c565b90508181036020830152610fb68184610f2a565b90509392505050565b600081519050919050565b600081905092915050565b60005b83811015610ff3578082015181840152602081019050610fd8565b60008484015250505050565b600061100a82610fbf565b6110148185610fca565b9350611024818560208601610fd5565b80840191505092915050565b600061103c8284610fff565b915081905092915050565b61105081610d11565b82525050565b600060208201905061106b6000830184611047565b92915050565b61107a81610cbb565b811461108557600080fd5b50565b60008151905061109781611071565b92915050565b6000602082840312156110b3576110b2610b22565b5b60006110c184828501611088565b91505092915050565b600082825260208201905092915050565b7f4e6f742072656769737465726564000000000000000000000000000000000000600082015250565b6000611111600e836110ca565b915061111c826110db565b602082019050919050565b6000602082019050818103600083015261114081611104565b9050919050565b7f416c726561647920766f74656400000000000000000000000000000000000000600082015250565b600061117d600d836110ca565b915061118882611147565b602082019050919050565b600060208201905081810360008301526111ac81611170565b9050919050565b60006111c66111c184610bc2565b610ba7565b9050828152602081018484840111156111e2576111e1610b31565b5b6111ed848285610fd5565b509392505050565b600082601f83011261120a57611209610b2c565b5b815161121a8482602086016111b3565b91505092915050565b60006020828403121561123957611238610b22565b5b600082015167ffffffffffffffff81111561125757611256610b27565b5b611263848285016111f5565b91505092915050565b7f566f74696e672070617573656400000000000000000000000000000000000000600082015250565b60006112a2600d836110ca565b91506112ad8261126c565b602082019050919050565b600060208201905081810360008301526112d181611295565b9050919050565b7f4e6f7420617070726f7665640000000000000000000000000000000000000000600082015250565b600061130e600c836110ca565b9150611319826112d8565b602082019050919050565b6000602082019050818103600083015261133d81611301565b9050919050565b60008060006060848603121561135d5761135c610b22565b5b600084015167ffffffffffffffff81111561137b5761137a610b27565b5b611387868287016111f5565b935050602084015167ffffffffffffffff8111156113a8576113a7610b27565b5b6113b4868287016111f5565b925050604084015167ffffffffffffffff8111156113d5576113d4610b27565b5b6113e1868287016111f5565b9150509250925092565b7f57726f6e6720636f6e7374697475656e63790000000000000000000000000000600082015250565b60006114216012836110ca565b915061142c826113eb565b602082019050919050565b6000602082019050818103600083015261145081611414565b9050919050565b7f4e487b7100000000000000000000000000000000000000000000000000000000600052601160045260246000fd5b600061149182610d7c565b91507fffffffffffffffffffffffffffffffffffffffffffffffffffffffffffffffff82036114c3576114c2611457565b5b600182019050919050565b60006114d982610fbf565b6114e381856110ca565b93506114f3818560208601610fd5565b6114fc81610b36565b840191505092915050565b6000602082019050818103600083015261152181846114ce565b905092915050565b600067ffffffffffffffff82111561154457611543610b47565b5b602082029050602081019050919050565b600080fd5b60008151905061156981610d23565b92915050565b600061158261157d84611529565b610ba7565b905080838252602082019050602084028301858111156115a5576115a4611555565b5b835b818110156115ce57806115ba888261155a565b8452602084019350506020810190506115a7565b5050509392505050565b600082601f8301126115ed576115ec610b2c565b5b81516115fd84826020860161156f565b91505092915050565b60006020828403121561161c5761161b610b22565b5b600082015167ffffffffffffffff81111561163a57611639610b27565b5b611646848285016115d8565b91505092915050565b7f4e487b7100000000000000000000000000000000000000000000000000000000600052603260045260246000fdfea2646970667358221220ed70746f5166d90ea4c0dc80a79b38792dee2327b5c45535f118bb57817d734d64736f6c63430008110033",
        "linkReferences": {}
    },
    "methodIdentifiers": {
        "castVote(address)": "53358fc4",
        "getTotalVotes(string)": "98d16f75",
        "getVoteCount(string,address)": "daef1693",
        "getVotesByConst(string)": "ecad2617",
        "isVotingPaused(string)": "272f6716",
        "pauseVoting(string)": "e91165c8",
        "resumeVoting(string)": "e5f2d84c"
    },
    "id": 28
}